{
  "_format": "hh-sol-artifact-1",
  "contractName": "Counter",
  "sourceName": "contracts/Counter.sol",
  "abi": [
    {
      "inputs": [],
      "name": "count",
      "outputs": [
        {
          "internalType": "uint256",
          "name": "",
          "type": "uint256"
        }
      ],
      "stateMutability": "view",
      "type": "function"
    },
    {
      "inputs": [],
      "name": "dec",
      "outputs": [],
      "stateMutability": "nonpayable",
      "type": "function"
    },
    {
      "inputs": [],
      "name": "get",
      "outputs": [
        {
          "internalType": "string",
          "name": "",
          "type": "string"
        }
      ],
      "stateMutability": "view",
      "type": "function"
    },
    {
      "inputs": [],
      "name": "getNumber",
      "outputs": [
        {
          "internalType": "uint256",
          "name": "",
          "type": "uint256"
        }
      ],
      "stateMutability": "view",
      "type": "function"
    },
    {
      "inputs": [],
      "name": "good",
      "outputs": [
        {
          "internalType": "string",
          "name": "",
          "type": "string"
        }
      ],
      "stateMutability": "view",
      "type": "function"
    },
    {
      "inputs": [],
      "name": "inc",
      "outputs": [],
      "stateMutability": "nonpayable",
      "type": "function"
    }
  ],
  "bytecode": "0x60806040526040518060400160405280600481526020017f676f6f64000000000000000000000000000000000000000000000000000000008152506001908051906020019061004f929190610062565b5034801561005c57600080fd5b50610166565b82805461006e90610105565b90600052602060002090601f01602090048101928261009057600085556100d7565b82601f106100a957805160ff19168380011785556100d7565b828001600101855582156100d7579182015b828111156100d65782518255916020019190600101906100bb565b5b5090506100e491906100e8565b5090565b5b808211156101015760008160009055506001016100e9565b5090565b6000600282049050600182168061011d57607f821691505b6020821081141561013157610130610137565b5b50919050565b7f4e487b7100000000000000000000000000000000000000000000000000000000600052602260045260246000fd5b610497806101756000396000f3fe608060405234801561001057600080fd5b50600436106100625760003560e01c806306661abd14610067578063371303c0146100855780636d4ce63c1461008f578063aa8fb40b146100ad578063b3bcfa82146100cb578063f2c9ecd8146100d5575b600080fd5b61006f6100f3565b60405161007c91906102c2565b60405180910390f35b61008d6100f9565b005b610097610114565b6040516100a491906102a0565b60405180910390f35b6100b56101a6565b6040516100c291906102a0565b60405180910390f35b6100d3610234565b005b6100dd61024f565b6040516100ea91906102c2565b60405180910390f35b60005481565b600160008082825461010b91906102f9565b92505081905550565b606060018054610123906103c0565b80601f016020809104026020016040519081016040528092919081815260200182805461014f906103c0565b801561019c5780601f106101715761010080835404028352916020019161019c565b820191906000526020600020905b81548152906001019060200180831161017f57829003601f168201915b5050505050905090565b600180546101b3906103c0565b80601f01602080910402602001604051908101604052809291908181526020018280546101df906103c0565b801561022c5780601f106102015761010080835404028352916020019161022c565b820191906000526020600020905b81548152906001019060200180831161020f57829003601f168201915b505050505081565b6001600080828254610246919061034f565b92505081905550565b60008054905090565b6000610263826102dd565b61026d81856102e8565b935061027d81856020860161038d565b61028681610450565b840191505092915050565b61029a81610383565b82525050565b600060208201905081810360008301526102ba8184610258565b905092915050565b60006020820190506102d76000830184610291565b92915050565b600081519050919050565b600082825260208201905092915050565b600061030482610383565b915061030f83610383565b9250827fffffffffffffffffffffffffffffffffffffffffffffffffffffffffffffffff03821115610344576103436103f2565b5b828201905092915050565b600061035a82610383565b915061036583610383565b925082821015610378576103776103f2565b5b828203905092915050565b6000819050919050565b60005b838110156103ab578082015181840152602081019050610390565b838111156103ba576000848401525b50505050565b600060028204905060018216806103d857607f821691505b602082108114156103ec576103eb610421565b5b50919050565b7f4e487b7100000000000000000000000000000000000000000000000000000000600052601160045260246000fd5b7f4e487b7100000000000000000000000000000000000000000000000000000000600052602260045260246000fd5b6000601f19601f830116905091905056fea2646970667358221220a44029e12b6f3a53929285e79b00b0102d12a8e47765def150dca5772c9722c264736f6c63430008060033",
  "linkReferences": {},
  "deployedLinkReferences": {}
}