{
  "_format": "hh-sol-artifact-1",
  "contractName": "TaskAssigner",
  "sourceName": "contracts/TaskManager.sol",
  "abi": [
    {
      "inputs": [],
      "stateMutability": "nonpayable",
      "type": "constructor"
    },
    {
      "anonymous": false,
      "inputs": [
        {
          "indexed": false,
          "internalType": "uint256[]",
          "name": "freeBotsID",
          "type": "uint256[]"
        }
      ],
      "name": "DoneFindingFreeBots",
      "type": "event"
    },
    {
      "anonymous": false,
      "inputs": [
        {
          "indexed": false,
          "internalType": "uint256[]",
          "name": "unassignedTasksID",
          "type": "uint256[]"
        }
      ],
      "name": "DoneFindingNewTasks",
      "type": "event"
    },
    {
      "inputs": [
        {
          "internalType": "string",
          "name": "good",
          "type": "string"
        },
        {
          "internalType": "string",
          "name": "destination",
          "type": "string"
        }
      ],
      "name": "addTask",
      "outputs": [],
      "stateMutability": "nonpayable",
      "type": "function"
    },
    {
      "inputs": [],
      "name": "readTasks",
      "outputs": [
        {
          "components": [
            {
              "internalType": "string",
              "name": "good",
              "type": "string"
            },
            {
              "internalType": "string",
              "name": "destination",
              "type": "string"
            },
            {
              "internalType": "uint256",
              "name": "assigner",
              "type": "uint256"
            },
            {
              "internalType": "uint256",
              "name": "stage",
              "type": "uint256"
            }
          ],
          "internalType": "struct TaskAssigner.Task[]",
          "name": "",
          "type": "tuple[]"
        }
      ],
      "stateMutability": "view",
      "type": "function"
    },
    {
      "inputs": [
        {
          "internalType": "uint256",
          "name": "",
          "type": "uint256"
        }
      ],
      "name": "robots",
      "outputs": [
        {
          "internalType": "address",
          "name": "node_address",
          "type": "address"
        },
        {
          "internalType": "uint256",
          "name": "status",
          "type": "uint256"
        }
      ],
      "stateMutability": "view",
      "type": "function"
    },
    {
      "inputs": [],
      "name": "roundRobin",
      "outputs": [
        {
          "internalType": "uint256",
          "name": "",
          "type": "uint256"
        }
      ],
      "stateMutability": "view",
      "type": "function"
    },
    {
      "inputs": [
        {
          "internalType": "uint256",
          "name": "",
          "type": "uint256"
        }
      ],
      "name": "tasks",
      "outputs": [
        {
          "internalType": "string",
          "name": "good",
          "type": "string"
        },
        {
          "internalType": "string",
          "name": "destination",
          "type": "string"
        },
        {
          "internalType": "uint256",
          "name": "assigner",
          "type": "uint256"
        },
        {
          "internalType": "uint256",
          "name": "stage",
          "type": "uint256"
        }
      ],
      "stateMutability": "view",
      "type": "function"
    },
    {
      "inputs": [
        {
          "internalType": "uint256",
          "name": "taskID",
          "type": "uint256"
        },
        {
          "internalType": "uint256",
          "name": "stage",
          "type": "uint256"
        }
      ],
      "name": "updateTaskStatus",
      "outputs": [],
      "stateMutability": "nonpayable",
      "type": "function"
    }
  ],
  "bytecode": "0x6080604052600060025534801561001557600080fd5b5060016040518060400160405280738943545177806ed17b9f23f0a21ee5948ecaa77673ffffffffffffffffffffffffffffffffffffffff1681526020016000815250908060018154018082558091505060019003906000526020600020906002020160009091909190915060008201518160000160006101000a81548173ffffffffffffffffffffffffffffffffffffffff021916908373ffffffffffffffffffffffffffffffffffffffff1602179055506020820151816001015550506001604051806040016040528073614561d2d143621e126e87831aef287678b442b873ffffffffffffffffffffffffffffffffffffffff1681526020016000815250908060018154018082558091505060019003906000526020600020906002020160009091909190915060008201518160000160006101000a81548173ffffffffffffffffffffffffffffffffffffffff021916908373ffffffffffffffffffffffffffffffffffffffff1602179055506020820151816001015550506001604051806040016040528073f93ee4cf8c6c40b329b0c0626f28333c132cf24173ffffffffffffffffffffffffffffffffffffffff1681526020016000815250908060018154018082558091505060019003906000526020600020906002020160009091909190915060008201518160000160006101000a81548173ffffffffffffffffffffffffffffffffffffffff021916908373ffffffffffffffffffffffffffffffffffffffff1602179055506020820151816001015550506114f58061025f6000396000f3fe608060405234801561001057600080fd5b50600436106100625760003560e01c80638d97767214610067578063a03937c51461009a578063b03ef677146100cb578063b37b1000146100e9578063edd8e1f614610105578063fb04899314610121575b600080fd5b610081600480360381019061007c9190610deb565b61013f565b6040516100919493929190611113565b60405180910390f35b6100b460048036038101906100af9190610deb565b61028f565b6040516100c29291906110a6565b60405180910390f35b6100d36102e3565b6040516100e091906111a6565b60405180910390f35b61010360048036038101906100fe9190610d6a565b6102e9565b005b61011f600480360381019061011a9190610e18565b610423565b005b61012961061b565b60405161013691906110cf565b60405180910390f35b6000818154811061014f57600080fd5b9060005260206000209060040201600091509050806000018054610172906112cf565b80601f016020809104026020016040519081016040528092919081815260200182805461019e906112cf565b80156101eb5780601f106101c0576101008083540402835291602001916101eb565b820191906000526020600020905b8154815290600101906020018083116101ce57829003601f168201915b505050505090806001018054610200906112cf565b80601f016020809104026020016040519081016040528092919081815260200182805461022c906112cf565b80156102795780601f1061024e57610100808354040283529160200191610279565b820191906000526020600020905b81548152906001019060200180831161025c57829003601f168201915b5050505050908060020154908060030154905084565b6001818154811061029f57600080fd5b90600052602060002090600202016000915090508060000160009054906101000a900473ffffffffffffffffffffffffffffffffffffffff16908060010154905082565b60025481565b6000604051806080016040528086868080601f016020809104026020016040519081016040528093929190818152602001838380828437600081840152601f19601f82011690508083019250505050505050815260200184848080601f016020809104026020016040519081016040528093929190818152602001838380828437600081840152601f19601f8201169050808301925050505050505081526020016000815260200160008152509050600081908060018154018082558091505060019003906000526020600020906004020160009091909190915060008201518160000190805190602001906103e0929190610c5c565b5060208201518160010190805190602001906103fd929190610c5c565b506040820151816002015560608201518160030155505061041c6107b2565b5050505050565b60007fffffffffffffffffffffffffffffffffffffffffffffffffffffffffffffffff905060005b6001805490508110156104ec573373ffffffffffffffffffffffffffffffffffffffff1660018281548110610483576104826113a8565b5b906000526020600020906002020160000160009054906101000a900473ffffffffffffffffffffffffffffffffffffffff1673ffffffffffffffffffffffffffffffffffffffff1614156104d9578091506104ec565b80806104e490611301565b91505061044b565b7fffffffffffffffffffffffffffffffffffffffffffffffffffffffffffffffff82141561054f576040517f08c379a000000000000000000000000000000000000000000000000000000000815260040161054690611166565b60405180910390fd5b8160008581548110610564576105636113a8565b5b906000526020600020906004020160020154146105b6576040517f08c379a00000000000000000000000000000000000000000000000000000000081526004016105ad90611186565b60405180910390fd5b82600085815481106105cb576105ca6113a8565b5b9060005260206000209060040201600301819055506005831415610615576000600183815481106105ff576105fe6113a8565b5b9060005260206000209060020201600101819055505b50505050565b60606000805480602002602001604051908101604052809291908181526020016000905b828210156107a95783829060005260206000209060040201604051806080016040529081600082018054610672906112cf565b80601f016020809104026020016040519081016040528092919081815260200182805461069e906112cf565b80156106eb5780601f106106c0576101008083540402835291602001916106eb565b820191906000526020600020905b8154815290600101906020018083116106ce57829003601f168201915b50505050508152602001600182018054610704906112cf565b80601f0160208091040260200160405190810160405280929190818152602001828054610730906112cf565b801561077d5780601f106107525761010080835404028352916020019161077d565b820191906000526020600020905b81548152906001019060200180831161076057829003601f168201915b50505050508152602001600282015481526020016003820154815250508152602001906001019061063f565b50505050905090565b600060018054905067ffffffffffffffff8111156107d3576107d26113d7565b5b6040519080825280602002602001820160405280156108015781602001602082028036833780820191505090505b50905060008060025490505b6001156108a457808061081f90611301565b915050600180549050811061083357600090505b600060018281548110610849576108486113a8565b5b90600052602060002090600202016001015414156108905780838381518110610875576108746113a8565b5b602002602001018181525050818061088c90611301565b9250505b60025481141561089f576108a4565b61080d565b60008267ffffffffffffffff8111156108c0576108bf6113d7565b5b6040519080825280602002602001820160405280156108ee5781602001602082028036833780820191505090505b50905060005b838110156109495784818151811061090f5761090e6113a8565b5b602002602001015182828151811061092a576109296113a8565b5b602002602001018181525050808061094190611301565b9150506108f4565b507f7d5f44acb72e60ad4b0d6e867323c02709304e6557b12a0aaf278e52ddbab2c88160405161097991906110f1565b60405180910390a16000808054905067ffffffffffffffff8111156109a1576109a06113d7565b5b6040519080825280602002602001820160405280156109cf5781602001602082028036833780820191505090505b5090506000805b600080549050811015610a525760008082815481106109f8576109f76113a8565b5b9060005260206000209060040201600301541415610a3f5780838381518110610a2457610a236113a8565b5b6020026020010181815250508180610a3b90611301565b9250505b8080610a4a90611301565b9150506109d6565b60008267ffffffffffffffff811115610a6e57610a6d6113d7565b5b604051908082528060200260200182016040528015610a9c5781602001602082028036833780820191505090505b50905060005b83811015610af757848181518110610abd57610abc6113a8565b5b6020026020010151828281518110610ad857610ad76113a8565b5b6020026020010181815250508080610aef90611301565b915050610aa2565b507f5293692d576371b1632e8c047b6814d63e95b5afad808a797d36297b661773ea81604051610b2791906110f1565b60405180910390a16000805b825182108015610b435750865181105b15610c505760016000848481518110610b5f57610b5e6113a8565b5b602002602001015181548110610b7857610b776113a8565b5b906000526020600020906004020160030181905550868181518110610ba057610b9f6113a8565b5b60200260200101516000848481518110610bbd57610bbc6113a8565b5b602002602001015181548110610bd657610bd56113a8565b5b906000526020600020906004020160020181905550600180888381518110610c0157610c006113a8565b5b602002602001015181548110610c1a57610c196113a8565b5b9060005260206000209060020201600101819055508080610c3a90611301565b9150508180610c4890611301565b925050610b33565b50505050505050505050565b828054610c68906112cf565b90600052602060002090601f016020900481019282610c8a5760008555610cd1565b82601f10610ca357805160ff1916838001178555610cd1565b82800160010185558215610cd1579182015b82811115610cd0578251825591602001919060010190610cb5565b5b509050610cde9190610ce2565b5090565b5b80821115610cfb576000816000905550600101610ce3565b5090565b60008083601f840112610d1557610d1461140b565b5b8235905067ffffffffffffffff811115610d3257610d31611406565b5b602083019150836001820283011115610d4e57610d4d611410565b5b9250929050565b600081359050610d64816114a8565b92915050565b60008060008060408587031215610d8457610d8361141a565b5b600085013567ffffffffffffffff811115610da257610da1611415565b5b610dae87828801610cff565b9450945050602085013567ffffffffffffffff811115610dd157610dd0611415565b5b610ddd87828801610cff565b925092505092959194509250565b600060208284031215610e0157610e0061141a565b5b6000610e0f84828501610d55565b91505092915050565b60008060408385031215610e2f57610e2e61141a565b5b6000610e3d85828601610d55565b9250506020610e4e85828601610d55565b9150509250929050565b6000610e64838361101e565b905092915050565b6000610e788383611088565b60208301905092915050565b610e8d81611260565b82525050565b6000610e9e826111e1565b610ea8818561121c565b935083602082028501610eba856111c1565b8060005b85811015610ef65784840389528151610ed78582610e58565b9450610ee283611202565b925060208a01995050600181019050610ebe565b50829750879550505050505092915050565b6000610f13826111ec565b610f1d818561122d565b9350610f28836111d1565b8060005b83811015610f59578151610f408882610e6c565b9750610f4b8361120f565b925050600181019050610f2c565b5085935050505092915050565b6000610f71826111f7565b610f7b818561123e565b9350610f8b81856020860161129c565b610f948161141f565b840191505092915050565b6000610faa826111f7565b610fb4818561124f565b9350610fc481856020860161129c565b610fcd8161141f565b840191505092915050565b6000610fe5600e8361124f565b9150610ff082611430565b602082019050919050565b600061100860228361124f565b915061101382611459565b604082019050919050565b6000608083016000830151848203600086015261103b8282610f66565b915050602083015184820360208601526110558282610f66565b915050604083015161106a6040860182611088565b50606083015161107d6060860182611088565b508091505092915050565b61109181611292565b82525050565b6110a081611292565b82525050565b60006040820190506110bb6000830185610e84565b6110c86020830184611097565b9392505050565b600060208201905081810360008301526110e98184610e93565b905092915050565b6000602082019050818103600083015261110b8184610f08565b905092915050565b6000608082019050818103600083015261112d8187610f9f565b905081810360208301526111418186610f9f565b90506111506040830185611097565b61115d6060830184611097565b95945050505050565b6000602082019050818103600083015261117f81610fd8565b9050919050565b6000602082019050818103600083015261119f81610ffb565b9050919050565b60006020820190506111bb6000830184611097565b92915050565b6000819050602082019050919050565b6000819050602082019050919050565b600081519050919050565b600081519050919050565b600081519050919050565b6000602082019050919050565b6000602082019050919050565b600082825260208201905092915050565b600082825260208201905092915050565b600082825260208201905092915050565b600082825260208201905092915050565b600061126b82611272565b9050919050565b600073ffffffffffffffffffffffffffffffffffffffff82169050919050565b6000819050919050565b60005b838110156112ba57808201518184015260208101905061129f565b838111156112c9576000848401525b50505050565b600060028204905060018216806112e757607f821691505b602082108114156112fb576112fa611379565b5b50919050565b600061130c82611292565b91507fffffffffffffffffffffffffffffffffffffffffffffffffffffffffffffffff82141561133f5761133e61134a565b5b600182019050919050565b7f4e487b7100000000000000000000000000000000000000000000000000000000600052601160045260246000fd5b7f4e487b7100000000000000000000000000000000000000000000000000000000600052602260045260246000fd5b7f4e487b7100000000000000000000000000000000000000000000000000000000600052603260045260246000fd5b7f4e487b7100000000000000000000000000000000000000000000000000000000600052604160045260246000fd5b600080fd5b600080fd5b600080fd5b600080fd5b600080fd5b6000601f19601f8301169050919050565b7f4e6f207375636820726f626f7421000000000000000000000000000000000000600082015250565b7f5468697320726f626f74206973206e6f7420646f696e6720746869732074617360008201527f6b21000000000000000000000000000000000000000000000000000000000000602082015250565b6114b181611292565b81146114bc57600080fd5b5056fea264697066735822122051f9b167ea459c0ea6f70251bb0372da323637a8debb77977f14169058b2739864736f6c63430008060033",
  "linkReferences": {},
  "deployedLinkReferences": {}
}